S00F000047656E6572616C2E7372656357
S11300000C942A000C943F000C943F000C943F0085
S11300100C943F000C943F000C943F000C943F0060
S11300200C943F000C943F000C943F000C943F0050
S11300300C943F000C943F000C943F000C943F0040
S11300400C943F000C943F000C943F000C943F0030
S11300500C943F0011241FBECFE5D8E0DEBFCDBF16
S113006012E0A0E6B0E0E6EDF8E002C005900D92E3
S1130070A434B107D9F70E9449020C9469040C9482
S1130080000080E40E9459028FE697E10197F1F79E
S113009000C0000080E00E94290383E00E9429033D
S11300A084E00E94290388E00E94290388E00E94DA
S11300B0290388E00E94290384E00E94290383E045
S11300C00E94290380E00E94290388E10E942903F9
S11300D084E00E94290382E00E94290382E00E94B6
S11300E0290382E00E94290384E00E94290388E115
S11300F00E94290383E00E94290385E00E942903CA
S113010089E00E94290381E00E94290381E00E9482
S1130110290382E00E94290382E00E94290382E0ED
S11301200E94290388E10E94290384E10E94290393
S113013082E10E94290380E10E94290380E10E9458
S1130140290388E00E94290388E00E94290388E0AB
S11301500E94290384E00E9429038EE00E9429035F
S113016084E00E94290381E00E94290382E00E9426
S1130170290384E00E94290384E00E94290384E087
S11301800E94290384E00E9429038EE00E9429032F
S113019084E00E94290380E10E94290388E00E94F0
S11301A0290384E00E94290384E00E94290384E057
S11301B00E94290361E081E00E94C90380E00E945B
S11301C0290362E081E00E94C90381E00E942903BF
S11301D061E082E00E94C90382E00E94290362E098
S11301E082E00E94C90383E00E94290363E081E066
S11301F00E94C90380E690E00E94BC039FEF2DE3B8
S113020089E4915020408040E1F700C0000081E083
S11302100E94590261E081E00E94C9038FE790E0E7
S11302200E94BC039FEF2DE389E49150204080405D
S1130230E1F700C0000081E00E94590261E081E022
S11302400E94C9038AE990E00E94BC0363E182E052
S11302500E94C90384E00E94290364E182E00E94B1
S1130260C90385E00E9429039FEF2DE389E491509F
S113027020408040E1F700C0000081E00E94590264
S113028061E081E00E94C9038EEB90E00E94BC0310
S11302909FEF2DE389E4915020408040E1F700C0B6
S11302A0000081E00E94590261E081E00E94C903DC
S11302B083ED90E00E94BC039FEF2DE389E491500D
S11302C020408040E1F700C0000081E00E94590214
S11302D061E081E00E94C90384EF90E00E94BC03C6
S11302E09FEF2DE389E4915020408040E1F700C066
S11302F0000081E00E94590261E081E00E94C9038C
S113030085E191E00E94BC039FEF2DE389E49150C5
S113031020408040E1F700C0000081E00E945902C3
S113032061E081E00E94C90387E391E00E94BC037D
S11303309FEF2DE389E4915020408040E1F700C015
S1130340000081E00E94590261E081E00E94C9033B
S11303508AE491E00E94BC039FEF2DE389E491506D
S113036020408040E1F700C0000081E00E94590273
S113037061E081E00E94C9038DE691E00E94BC0324
S11303809FEF2DE389E4915020408040E1F700C0C5
S1130390000081E00E94590261E081E00E94C903EB
S11303A086E891E00E94BC039FEF2DE389E491501D
S11303B020408040E1F700C0000081E00E94590223
S11303C061E081E00E94C9038EEA91E00E94BC03CF
S11303D09FEF2DE389E4915020408040E1F700C075
S11303E0000081E00E94590261E081E00E94C9039B
S11303F088ED91E00E94BC039FEF2DE389E49150C6
S113040020408040E1F700C0000081E00E945902D2
S113041065E082E00E94C90383EF91E00E94BC037F
S11304209FEF2DE389E4915020408040E1F700C024
S1130430000081E00E94590261E081E00E94C9034A
S113044088E092E00E94BC039FEF2DE389E4915081
S113045020408040E1F700C0000081E00E94590282
S113046064E081E00E94C9038AE192E00E94BC0337
S11304709FEF2DE389E4915020408040E1F700C0D4
S1130480000081E00E94590261E081E00E94C903FA
S113049008950E94F5030E94EC022FEF89E698E18B
S11304A0215080409040E1F700C000000E944100CC
S11304B0FDCFCF93C82F40E063E080E00E94FC03AF
S11304C04C2F407150E05595479555954795559556
S11304D047955595479560E081E00E94FC034C2FB9
S11304E0407250E0559547955595479555954795D4
S11304F0559547955595479561E081E00E94FC0329
S11305004C2F407450E0042E452F000C441F550B13
S1130510000C441F551F62E081E00E94FC034C2F35
S1130520441F4427441F64E081E00E94FC0341E02F
S113053062E080E00E94FC0383EF91E00197F1F711
S113054000C0000040E062E080E00E94FC0383EF12
S113055091E00197F1F700C000004C2F417060E07A
S113056081E00E94FC034C2F427050E05595479562
S113057061E081E00E94FC034C2F447050E05595EB
S113058047955595479562E081E00E94FC03C87049
S11305904C2F50E05595479555954795559547955A
S11305A064E081E00E94FC0341E062E080E00E949C
S11305B0FC0383EF91E00197F1F700C0000040E0F5
S11305C062E080E00E94FC0383EF91E00197F1F781
S11305D000C00000CF9108958FE097E20197F1F7F2
S11305E000C0000083E30E94590289EF90E0019764
S11305F0F1F700C0000082E30E94590289EF90E005
S11306000197F1F700C0000088E20E94590289EFC7
S113061090E00197F1F700C000008CE00E945902BD
S113062089EF90E00197F1F700C0000081E00E949B
S1130630590289EF90E00197F1F700C0000082E0D1
S11306400E94590289EF90E00197F1F700C0000081
S11306500895CF93C82F41E063E080E00E94FC033B
S11306604C2F407150E055954795559547955595B4
S113067047955595479560E081E00E94FC034C2F17
S1130680407250E055954795559547955595479532
S1130690559547955595479561E081E00E94FC0387
S11306A04C2F407450E0042E452F000C441F550B72
S11306B0000C441F551F62E081E00E94FC034C2F94
S11306C0441F4427441F64E081E00E94FC0341E08E
S11306D062E080E00E94FC0383EF91E00197F1F770
S11306E000C0000040E062E080E00E94FC0383EF71
S11306F091E00197F1F700C000004C2F417060E0D9
S113070081E00E94FC034C2F427050E055954795C0
S113071061E081E00E94FC034C2F447050E0559549
S113072047955595479562E081E00E94FC03C870A7
S11307304C2F50E0559547955595479555954795B8
S113074064E081E00E94FC0341E062E080E00E94FA
S1130750FC0383EF91E00197F1F700C0000040E053
S113076062E080E00E94FC0383EF91E00197F1F7DF
S113077000C00000CF910895CF93DF93EC0103C034
S11307800E942903219688818111FACFDF91CF91AC
S113079008959FEF980F9430C0F46531C0F4662338
S11307A0C1F0813019F48FE7860F16C0823019F436
S11307B08FEB860F11C0833019F483E9860F0CC0C8
S11307C0843049F483ED860F07C080E805C080E8D3
S11307D003C080E801C080E80E94590289EF90E0DC
S11307E00197F1F700C0000008958FEF8ABB87BB23
S11307F090EF94BB81BB0895813001F130F08230D9
S1130800B1F1833009F44CC00895413059F42BB34D
S113081081E090E002C0880F991F6A95E2F7822B6D
S11308208BBB08952BB381E090E002C0880F991F21
S11308306A95E2F7809582238BBB0895413059F481
S113084028B381E090E002C0880F991F6A95E2F70F
S1130850822B88BB089528B381E090E002C0880F02
S1130860991F6A95E2F78095822388BB08954130E9
S113087059F425B381E090E002C0880F991F6A956E
S1130880E2F7822B85BB089525B381E090E002C096
S1130890880F991F6A95E2F78095822385BB089596
S11308A0413059F422B381E090E002C0880F991FCF
S11308B06A95E2F7822B82BB089522B381E090E02F
S11308C002C0880F991F6A95E2F78095822382BB44
S10908D00895F894FFCF27
S11308D6204F6E6365204C697665642061206D61E6
S11308E66E2077686F2072656D61696E656400209D
S11308F6756E6D61727269656420686973207768C4
S11309066F6C65204C6966652E005768656E2048D5
S11309166520776173203930205965617273204FE1
S11309266C6420616E64204479696E672C00536F91
S11309366D65206F6E652061736B65642048696D13
S11309463A2000576879206E6F74206D617272695F
S1130956656420746869732077686F6C65205469D0
S11309666D653F004F6C64206D616E207265706C1E
S11309766965643A2049276D206E6F74206167614A
S1130986696E7374006D617272696167652C2062A9
S11309967574206920776173207365617263686971
S11309A66E6720666F72005468652050455246454E
S11309B6435420776F6D616E2E004D616E20617316
S11309C66B65643A204275742079657420552063FA
S11309D66F756C646E27742066696E64007468654E
S11309E6207065726665637420776F6D616E20662C
S11309F66F7220553F005469657220726F6C6C6586
S1130A066420646F776E2066726F6D206579652049
S1130A166F66206479696E67206D616E2C00616E65
S1130A266420736169643A205945532C2069206413
S1130A36696420666F756E64206120504552464590
S1130A464354206F6E652E004D616E2077617320CE
S1130A5673686F636B656420616E642061736B6594
S1130A66643A00207468656E207768617420686152
S1130A767070656E65643F00204F6C64206D616E16
S1130A86207265706C6965643A0020546865207745
S1130A966F6D616E20776173207365617263686937
S1130AA66E6720666F72207065726665637420488F
S1070AB675622E0033
S9030000FC
